{
  "_format": "hh-sol-artifact-1",
  "contractName": "Encoding",
  "sourceName": "contracts/sublesson/Encoding.sol",
  "abi": [
    {
      "inputs": [],
      "name": "combineStrings",
      "outputs": [
        {
          "internalType": "string",
          "name": "",
          "type": "string"
        }
      ],
      "stateMutability": "pure",
      "type": "function"
    },
    {
      "inputs": [],
      "name": "decodeString",
      "outputs": [
        {
          "internalType": "string",
          "name": "",
          "type": "string"
        }
      ],
      "stateMutability": "pure",
      "type": "function"
    },
    {
      "inputs": [],
      "name": "encodeNumber",
      "outputs": [
        {
          "internalType": "bytes",
          "name": "",
          "type": "bytes"
        }
      ],
      "stateMutability": "pure",
      "type": "function"
    },
    {
      "inputs": [],
      "name": "encodeString",
      "outputs": [
        {
          "internalType": "bytes",
          "name": "",
          "type": "bytes"
        }
      ],
      "stateMutability": "pure",
      "type": "function"
    },
    {
      "inputs": [],
      "name": "encodeStringBytes",
      "outputs": [
        {
          "internalType": "bytes",
          "name": "",
          "type": "bytes"
        }
      ],
      "stateMutability": "pure",
      "type": "function"
    },
    {
      "inputs": [],
      "name": "encodeStringPacked",
      "outputs": [
        {
          "internalType": "bytes",
          "name": "",
          "type": "bytes"
        }
      ],
      "stateMutability": "pure",
      "type": "function"
    },
    {
      "inputs": [],
      "name": "multiDecode",
      "outputs": [
        {
          "internalType": "string",
          "name": "",
          "type": "string"
        },
        {
          "internalType": "string",
          "name": "",
          "type": "string"
        }
      ],
      "stateMutability": "pure",
      "type": "function"
    },
    {
      "inputs": [],
      "name": "multiDecodePacked",
      "outputs": [
        {
          "internalType": "string",
          "name": "",
          "type": "string"
        }
      ],
      "stateMutability": "pure",
      "type": "function"
    },
    {
      "inputs": [],
      "name": "multiEncode",
      "outputs": [
        {
          "internalType": "bytes",
          "name": "",
          "type": "bytes"
        }
      ],
      "stateMutability": "pure",
      "type": "function"
    },
    {
      "inputs": [],
      "name": "multiEncodePacked",
      "outputs": [
        {
          "internalType": "bytes",
          "name": "",
          "type": "bytes"
        }
      ],
      "stateMutability": "pure",
      "type": "function"
    },
    {
      "inputs": [],
      "name": "multiStringCastPacked",
      "outputs": [
        {
          "internalType": "string",
          "name": "",
          "type": "string"
        }
      ],
      "stateMutability": "pure",
      "type": "function"
    },
    {
      "inputs": [
        {
          "internalType": "address",
          "name": "recentWinner",
          "type": "address"
        }
      ],
      "name": "withdraw",
      "outputs": [],
      "stateMutability": "nonpayable",
      "type": "function"
    }
  ],
  "bytecode": "0x608060405234801561001057600080fd5b50610c15806100206000396000f3fe608060405234801561001057600080fd5b50600436106100b45760003560e01c8063929b807e11610071578063929b807e1461016b578063a6dc49b814610189578063a77b0360146101a7578063b4748718146101c5578063c452d79b146101e3578063ed5df36514610202576100b4565b8063114a7610146100b957806315889d1a146100d75780632085f4b9146100f5578063406ec9f21461011357806351cff8d91461013157806360ee46c31461014d575b600080fd5b6100c1610220565b6040516100ce9190610541565b60405180910390f35b6100df610245565b6040516100ec91906105b8565b60405180910390f35b6100fd610273565b60405161010a91906105b8565b60405180910390f35b61011b61029e565b60405161012891906105b8565b60405180910390f35b61014b6004803603810190610146919061064c565b6102e1565b005b610155610391565b6040516101629190610541565b60405180910390f35b6101736103a6565b6040516101809190610541565b60405180910390f35b6101916103ce565b60405161019e91906105b8565b60405180910390f35b6101af6103f9565b6040516101bc9190610541565b60405180910390f35b6101cd610421565b6040516101da91906105b8565b60405180910390f35b6101eb61044c565b6040516101f9929190610679565b60405180910390f35b61020a61047d565b60405161021791906105b8565b60405180910390f35b606060405160200161023190610753565b604051602081830303815290604052905090565b60606000600160405160200161025b91906107c5565b60405160208183030381529060405290508091505090565b606060006040516020016102869061082c565b60405160208183030381529060405290508091505090565b606060006040518060400160405280600b81526020017f736f6d6520737472696e6700000000000000000000000000000000000000000081525090508091505090565b60008173ffffffffffffffffffffffffffffffffffffffff164760405161030790610872565b60006040518083038185875af1925050503d8060008114610344576040519150601f19603f3d011682016040523d82523d6000602084013e610349565b606091505b505090508061038d576040517f08c379a0000000000000000000000000000000000000000000000000000000008152600401610384906108d3565b60405180910390fd5b5050565b6060600061039d610421565b90508091505090565b606060006103b2610421565b8060200190518101906103c59190610a19565b90508091505090565b606060006040516020016103e190610ad1565b60405160208183030381529060405290508091505090565b6060600061040561047d565b8060200190518101906104189190610a19565b90508091505090565b6060600060405160200161043490610b27565b60405160208183030381529060405290508091505090565b60608060008061045a6103ce565b80602001905181019061046d9190610b47565b9150915081819350935050509091565b6060600060405160200161049090610bbf565b60405160208183030381529060405290508091505090565b600081519050919050565b600082825260208201905092915050565b60005b838110156104e25780820151818401526020810190506104c7565b838111156104f1576000848401525b50505050565b6000601f19601f8301169050919050565b6000610513826104a8565b61051d81856104b3565b935061052d8185602086016104c4565b610536816104f7565b840191505092915050565b6000602082019050818103600083015261055b8184610508565b905092915050565b600081519050919050565b600082825260208201905092915050565b600061058a82610563565b610594818561056e565b93506105a48185602086016104c4565b6105ad816104f7565b840191505092915050565b600060208201905081810360008301526105d2818461057f565b905092915050565b6000604051905090565b600080fd5b600080fd5b600073ffffffffffffffffffffffffffffffffffffffff82169050919050565b6000610619826105ee565b9050919050565b6106298161060e565b811461063457600080fd5b50565b60008135905061064681610620565b92915050565b600060208284031215610662576106616105e4565b5b600061067084828501610637565b91505092915050565b600060408201905081810360008301526106938185610508565b905081810360208301526106a78184610508565b90509392505050565b600081905092915050565b7f4869204d6f6d2120000000000000000000000000000000000000000000000000600082015250565b60006106f16008836106b0565b91506106fc826106bb565b600882019050919050565b7f4d69737320796f752e0000000000000000000000000000000000000000000000600082015250565b600061073d6009836106b0565b915061074882610707565b600982019050919050565b600061075e826106e4565b915061076982610730565b9150819050919050565b6000819050919050565b600060ff82169050919050565b6000819050919050565b60006107af6107aa6107a584610773565b61078a565b61077d565b9050919050565b6107bf81610794565b82525050565b60006020820190506107da60008301846107b6565b92915050565b7f736f6d6520737472696e67000000000000000000000000000000000000000000600082015250565b6000610816600b836106b0565b9150610821826107e0565b600b82019050919050565b600061083782610809565b9150819050919050565b600081905092915050565b50565b600061085c600083610841565b91506108678261084c565b600082019050919050565b600061087d8261084f565b9150819050919050565b7f5472616e73666572204661696c65640000000000000000000000000000000000600082015250565b60006108bd600f836104b3565b91506108c882610887565b602082019050919050565b600060208201905081810360008301526108ec816108b0565b9050919050565b600080fd5b600080fd5b7f4e487b7100000000000000000000000000000000000000000000000000000000600052604160045260246000fd5b610935826104f7565b810181811067ffffffffffffffff82111715610954576109536108fd565b5b80604052505050565b60006109676105da565b9050610973828261092c565b919050565b600067ffffffffffffffff821115610993576109926108fd565b5b61099c826104f7565b9050602081019050919050565b60006109bc6109b784610978565b61095d565b9050828152602081018484840111156109d8576109d76108f8565b5b6109e38482856104c4565b509392505050565b600082601f830112610a00576109ff6108f3565b5b8151610a108482602086016109a9565b91505092915050565b600060208284031215610a2f57610a2e6105e4565b5b600082015167ffffffffffffffff811115610a4d57610a4c6105e9565b5b610a59848285016109eb565b91505092915050565b6000610a6f600b836104b3565b9150610a7a826107e0565b602082019050919050565b7f6974277320626967676572210000000000000000000000000000000000000000600082015250565b6000610abb600c836104b3565b9150610ac682610a85565b602082019050919050565b60006040820190508181036000830152610aea81610a62565b90508181036020830152610afd81610aae565b9050919050565b6000610b11600c836106b0565b9150610b1c82610a85565b600c82019050919050565b6000610b3282610809565b9150610b3d82610b04565b9150819050919050565b60008060408385031215610b5e57610b5d6105e4565b5b600083015167ffffffffffffffff811115610b7c57610b7b6105e9565b5b610b88858286016109eb565b925050602083015167ffffffffffffffff811115610ba957610ba86105e9565b5b610bb5858286016109eb565b9150509250929050565b60006020820190508181036000830152610bd881610a62565b905091905056fea264697066735822122028d0b27b143f41890a27006a7aa33541eec36e9b597251ef8a1acc1434ec3e2664736f6c63430008080033",
  "linkReferences": {},
  "deployedLinkReferences": {}
}