{
  "_format": "hh-sol-artifact-1",
  "contractName": "CallAnything",
  "sourceName": "contracts/sublesson/CallAnything.sol",
  "abi": [
    {
      "inputs": [
        {
          "internalType": "address",
          "name": "someAddress",
          "type": "address"
        },
        {
          "internalType": "uint256",
          "name": "amount",
          "type": "uint256"
        }
      ],
      "name": "callTransferFunctionDirectly",
      "outputs": [
        {
          "internalType": "bytes4",
          "name": "",
          "type": "bytes4"
        },
        {
          "internalType": "bool",
          "name": "",
          "type": "bool"
        }
      ],
      "stateMutability": "nonpayable",
      "type": "function"
    },
    {
      "inputs": [
        {
          "internalType": "address",
          "name": "someAddress",
          "type": "address"
        },
        {
          "internalType": "uint256",
          "name": "amount",
          "type": "uint256"
        }
      ],
      "name": "callTransferFunctionDirectlyTwo",
      "outputs": [
        {
          "internalType": "bytes4",
          "name": "",
          "type": "bytes4"
        },
        {
          "internalType": "bool",
          "name": "",
          "type": "bool"
        }
      ],
      "stateMutability": "nonpayable",
      "type": "function"
    },
    {
      "inputs": [],
      "name": "getCallData",
      "outputs": [
        {
          "internalType": "bytes",
          "name": "",
          "type": "bytes"
        }
      ],
      "stateMutability": "view",
      "type": "function"
    },
    {
      "inputs": [
        {
          "internalType": "address",
          "name": "someAddress",
          "type": "address"
        },
        {
          "internalType": "uint256",
          "name": "amount",
          "type": "uint256"
        }
      ],
      "name": "getDataToCallTransfer",
      "outputs": [
        {
          "internalType": "bytes",
          "name": "",
          "type": "bytes"
        }
      ],
      "stateMutability": "pure",
      "type": "function"
    },
    {
      "inputs": [],
      "name": "getSelectorFour",
      "outputs": [
        {
          "internalType": "bytes4",
          "name": "selector",
          "type": "bytes4"
        }
      ],
      "stateMutability": "pure",
      "type": "function"
    },
    {
      "inputs": [],
      "name": "getSelectorOne",
      "outputs": [
        {
          "internalType": "bytes4",
          "name": "selector",
          "type": "bytes4"
        }
      ],
      "stateMutability": "pure",
      "type": "function"
    },
    {
      "inputs": [
        {
          "internalType": "bytes",
          "name": "functionCallData",
          "type": "bytes"
        }
      ],
      "name": "getSelectorThree",
      "outputs": [
        {
          "internalType": "bytes4",
          "name": "selector",
          "type": "bytes4"
        }
      ],
      "stateMutability": "pure",
      "type": "function"
    },
    {
      "inputs": [],
      "name": "getSelectorTwo",
      "outputs": [
        {
          "internalType": "bytes4",
          "name": "selector",
          "type": "bytes4"
        }
      ],
      "stateMutability": "view",
      "type": "function"
    },
    {
      "inputs": [],
      "name": "getSignatureOne",
      "outputs": [
        {
          "internalType": "string",
          "name": "",
          "type": "string"
        }
      ],
      "stateMutability": "pure",
      "type": "function"
    },
    {
      "inputs": [],
      "name": "s_amount",
      "outputs": [
        {
          "internalType": "uint256",
          "name": "",
          "type": "uint256"
        }
      ],
      "stateMutability": "view",
      "type": "function"
    },
    {
      "inputs": [],
      "name": "s_someAddress",
      "outputs": [
        {
          "internalType": "address",
          "name": "",
          "type": "address"
        }
      ],
      "stateMutability": "view",
      "type": "function"
    },
    {
      "inputs": [
        {
          "internalType": "address",
          "name": "someAddress",
          "type": "address"
        },
        {
          "internalType": "uint256",
          "name": "amount",
          "type": "uint256"
        }
      ],
      "name": "transfer",
      "outputs": [],
      "stateMutability": "nonpayable",
      "type": "function"
    }
  ],
  "bytecode": "0x608060405234801561001057600080fd5b50610e31806100206000396000f3fe608060405234801561001057600080fd5b50600436106100b45760003560e01c8063a9059cbb11610071578063a9059cbb14610192578063aad229d5146101ae578063b20d9446146101cc578063c6e93bad146101fd578063ce6eb7ff1461021b578063fbf6d5151461024b576100b4565b80630bf9aa4c146100b957806325435a56146100d75780637c0c5f23146100f5578063852d52fa146101255780639a41d3ad14610143578063a5694e4a14610161575b600080fd5b6100c1610269565b6040516100ce919061088a565b60405180910390f35b6100df610301565b6040516100ec91906108e7565b60405180910390f35b61010f600480360381019061010a91906109a0565b610310565b60405161011c919061088a565b60405180910390f35b61012d610392565b60405161013a9190610a35565b60405180910390f35b61014b6103cf565b60405161015891906108e7565b60405180910390f35b61017b600480360381019061017691906109a0565b610413565b604051610189929190610a72565b60405180910390f35b6101ac60048036038101906101a791906109a0565b610514565b005b6101b661055f565b6040516101c39190610aaa565b60405180910390f35b6101e660048036038101906101e191906109a0565b610583565b6040516101f4929190610a72565b60405180910390f35b61020561069c565b6040516102129190610ad4565b60405180910390f35b61023560048036038101906102309190610b54565b6106a2565b60405161024291906108e7565b60405180910390f35b6102536106ae565b60405161026091906108e7565b60405180910390f35b606030607b60405160240161027f929190610bf3565b6040516020818303038152906040527fa9059cbb000000000000000000000000000000000000000000000000000000007bffffffffffffffffffffffffffffffffffffffffffffffffffffffff19166020820180517bffffffffffffffffffffffffffffffffffffffffffffffffffffffff8381831617835250505050905090565b600063a9059cbb60e01b905090565b606061031a6103cf565b838360405160240161032d929190610c1c565b604051602081830303815290604052907bffffffffffffffffffffffffffffffffffffffffffffffffffffffff19166020820180517bffffffffffffffffffffffffffffffffffffffffffffffffffffffff8381831617835250505050905092915050565b60606040518060400160405280601981526020017f7472616e7366657228616464726573732c75696e743235362900000000000000815250905090565b60006040518060400160405280601981526020017f7472616e7366657228616464726573732c75696e74323536290000000000000081525080519060200120905090565b6000806000803073ffffffffffffffffffffffffffffffffffffffff166104386103cf565b878760405160240161044b929190610c1c565b604051602081830303815290604052907bffffffffffffffffffffffffffffffffffffffffffffffffffffffff19166020820180517bffffffffffffffffffffffffffffffffffffffffffffffffffffffff83818316178352505050506040516104b59190610c81565b6000604051808303816000865af19150503d80600081146104f2576040519150601f19603f3d011682016040523d82523d6000602084013e6104f7565b606091505b50915091508061050690610cca565b829350935050509250929050565b816000806101000a81548173ffffffffffffffffffffffffffffffffffffffff021916908373ffffffffffffffffffffffffffffffffffffffff160217905550806001819055505050565b60008054906101000a900473ffffffffffffffffffffffffffffffffffffffff1681565b6000806000803073ffffffffffffffffffffffffffffffffffffffff1686866040516024016105b3929190610c1c565b6040516020818303038152906040527fa9059cbb000000000000000000000000000000000000000000000000000000007bffffffffffffffffffffffffffffffffffffffffffffffffffffffff19166020820180517bffffffffffffffffffffffffffffffffffffffffffffffffffffffff838183161783525050505060405161063d9190610c81565b6000604051808303816000865af19150503d806000811461067a576040519150601f19603f3d011682016040523d82523d6000602084013e61067f565b606091505b50915091508061068e90610cca565b829350935050509250929050565b60015481565b60008235905092915050565b60008030607b6040516024016106c5929190610bf3565b6040516020818303038152906040527fa9059cbb000000000000000000000000000000000000000000000000000000007bffffffffffffffffffffffffffffffffffffffffffffffffffffffff19166020820180517bffffffffffffffffffffffffffffffffffffffffffffffffffffffff838183161783525050505090508060008151811061075857610757610d31565b5b602001015160f81c60f81b8160018151811061077757610776610d31565b5b602001015160f81c60f81b8260028151811061079657610795610d31565b5b602001015160f81c60f81b836003815181106107b5576107b4610d31565b5b602001015160f81c60f81b6040516020016107d39493929190610dad565b6040516020818303038152906040526107eb90610cca565b91505090565b600081519050919050565b600082825260208201905092915050565b60005b8381101561082b578082015181840152602081019050610810565b8381111561083a576000848401525b50505050565b6000601f19601f8301169050919050565b600061085c826107f1565b61086681856107fc565b935061087681856020860161080d565b61087f81610840565b840191505092915050565b600060208201905081810360008301526108a48184610851565b905092915050565b60007fffffffff0000000000000000000000000000000000000000000000000000000082169050919050565b6108e1816108ac565b82525050565b60006020820190506108fc60008301846108d8565b92915050565b600080fd5b600080fd5b600073ffffffffffffffffffffffffffffffffffffffff82169050919050565b60006109378261090c565b9050919050565b6109478161092c565b811461095257600080fd5b50565b6000813590506109648161093e565b92915050565b6000819050919050565b61097d8161096a565b811461098857600080fd5b50565b60008135905061099a81610974565b92915050565b600080604083850312156109b7576109b6610902565b5b60006109c585828601610955565b92505060206109d68582860161098b565b9150509250929050565b600081519050919050565b600082825260208201905092915050565b6000610a07826109e0565b610a1181856109eb565b9350610a2181856020860161080d565b610a2a81610840565b840191505092915050565b60006020820190508181036000830152610a4f81846109fc565b905092915050565b60008115159050919050565b610a6c81610a57565b82525050565b6000604082019050610a8760008301856108d8565b610a946020830184610a63565b9392505050565b610aa48161092c565b82525050565b6000602082019050610abf6000830184610a9b565b92915050565b610ace8161096a565b82525050565b6000602082019050610ae96000830184610ac5565b92915050565b600080fd5b600080fd5b600080fd5b60008083601f840112610b1457610b13610aef565b5b8235905067ffffffffffffffff811115610b3157610b30610af4565b5b602083019150836001820283011115610b4d57610b4c610af9565b5b9250929050565b60008060208385031215610b6b57610b6a610902565b5b600083013567ffffffffffffffff811115610b8957610b88610907565b5b610b9585828601610afe565b92509250509250929050565b6000819050919050565b600060ff82169050919050565b6000819050919050565b6000610bdd610bd8610bd384610ba1565b610bb8565b610bab565b9050919050565b610bed81610bc2565b82525050565b6000604082019050610c086000830185610a9b565b610c156020830184610be4565b9392505050565b6000604082019050610c316000830185610a9b565b610c3e6020830184610ac5565b9392505050565b600081905092915050565b6000610c5b826107f1565b610c658185610c45565b9350610c7581856020860161080d565b80840191505092915050565b6000610c8d8284610c50565b915081905092915050565b6000819050602082019050919050565b6000610cb482516108ac565b80915050919050565b600082821b905092915050565b6000610cd5826107f1565b82610cdf84610c98565b9050610cea81610ca8565b92506004821015610d2a57610d257fffffffff0000000000000000000000000000000000000000000000000000000083600403600802610cbd565b831692505b5050919050565b7f4e487b7100000000000000000000000000000000000000000000000000000000600052603260045260246000fd5b60007fff0000000000000000000000000000000000000000000000000000000000000082169050919050565b6000819050919050565b610da7610da282610d60565b610d8c565b82525050565b6000610db98287610d96565b600182019150610dc98286610d96565b600182019150610dd98285610d96565b600182019150610de98284610d96565b6001820191508190509594505050505056fea2646970667358221220201c033fce5b167d743bf63c182fd62c327470fb968a58733ab7248365e4ace764736f6c63430008080033",
  "linkReferences": {},
  "deployedLinkReferences": {}
}