{
  "_format": "hh-sol-artifact-1",
  "contractName": "CallFunctionWithoutContract",
  "sourceName": "contracts/sublesson/CallAnything.sol",
  "abi": [
    {
      "inputs": [
        {
          "internalType": "address",
          "name": "selectorsAndSignaturesAddress",
          "type": "address"
        }
      ],
      "stateMutability": "nonpayable",
      "type": "constructor"
    },
    {
      "inputs": [
        {
          "internalType": "bytes",
          "name": "callData",
          "type": "bytes"
        }
      ],
      "name": "callFunctionDirectly",
      "outputs": [
        {
          "internalType": "bytes4",
          "name": "",
          "type": "bytes4"
        },
        {
          "internalType": "bool",
          "name": "",
          "type": "bool"
        }
      ],
      "stateMutability": "nonpayable",
      "type": "function"
    },
    {
      "inputs": [
        {
          "internalType": "address",
          "name": "someAddress",
          "type": "address"
        },
        {
          "internalType": "uint256",
          "name": "amount",
          "type": "uint256"
        }
      ],
      "name": "callTransferFunctionDirectlyThree",
      "outputs": [
        {
          "internalType": "bytes4",
          "name": "",
          "type": "bytes4"
        },
        {
          "internalType": "bool",
          "name": "",
          "type": "bool"
        }
      ],
      "stateMutability": "nonpayable",
      "type": "function"
    },
    {
      "inputs": [],
      "name": "s_selectorsAndSignaturesAddress",
      "outputs": [
        {
          "internalType": "address",
          "name": "",
          "type": "address"
        }
      ],
      "stateMutability": "view",
      "type": "function"
    },
    {
      "inputs": [],
      "name": "staticCallFunctionDirectly",
      "outputs": [
        {
          "internalType": "bytes4",
          "name": "",
          "type": "bytes4"
        },
        {
          "internalType": "bool",
          "name": "",
          "type": "bool"
        }
      ],
      "stateMutability": "view",
      "type": "function"
    }
  ],
  "bytecode": "0x608060405234801561001057600080fd5b50604051610a17380380610a17833981810160405281019061003291906100db565b806000806101000a81548173ffffffffffffffffffffffffffffffffffffffff021916908373ffffffffffffffffffffffffffffffffffffffff16021790555050610108565b600080fd5b600073ffffffffffffffffffffffffffffffffffffffff82169050919050565b60006100a88261007d565b9050919050565b6100b88161009d565b81146100c357600080fd5b50565b6000815190506100d5816100af565b92915050565b6000602082840312156100f1576100f0610078565b5b60006100ff848285016100c6565b91505092915050565b610900806101176000396000f3fe608060405234801561001057600080fd5b506004361061004c5760003560e01c80631ce431b9146100515780637690a4a21461007057806378d331d6146100a1578063e4ca8507146100bf575b600080fd5b6100596100f0565b604051610067929190610503565b60405180910390f35b61008a6004803603810190610085919061059b565b610217565b604051610098929190610503565b60405180910390f35b6100a9610350565b6040516100b69190610629565b60405180910390f35b6100d960048036038101906100d491906106a6565b610374565b6040516100e7929190610503565b60405180910390f35b60008060008060008054906101000a900473ffffffffffffffffffffffffffffffffffffffff1673ffffffffffffffffffffffffffffffffffffffff166040516024016040516020818303038152906040527f9a41d3ad000000000000000000000000000000000000000000000000000000007bffffffffffffffffffffffffffffffffffffffffffffffffffffffff19166020820180517bffffffffffffffffffffffffffffffffffffffffffffffffffffffff83818316178352505050506040516101bd9190610760565b600060405180830381855afa9150503d80600081146101f8576040519150601f19603f3d011682016040523d82523d6000602084013e6101fd565b606091505b50915091508061020c906107a9565b829350935050509091565b60008060008060008054906101000a900473ffffffffffffffffffffffffffffffffffffffff1673ffffffffffffffffffffffffffffffffffffffff16868660405160240161026792919061086e565b6040516020818303038152906040527fce6eb7ff000000000000000000000000000000000000000000000000000000007bffffffffffffffffffffffffffffffffffffffffffffffffffffffff19166020820180517bffffffffffffffffffffffffffffffffffffffffffffffffffffffff83818316178352505050506040516102f19190610760565b6000604051808303816000865af19150503d806000811461032e576040519150601f19603f3d011682016040523d82523d6000602084013e610333565b606091505b509150915080610342906107a9565b829350935050509250929050565b60008054906101000a900473ffffffffffffffffffffffffffffffffffffffff1681565b60008060008060008054906101000a900473ffffffffffffffffffffffffffffffffffffffff1673ffffffffffffffffffffffffffffffffffffffff1686866040516024016103c49291906108a1565b6040516020818303038152906040527fa9059cbb000000000000000000000000000000000000000000000000000000007bffffffffffffffffffffffffffffffffffffffffffffffffffffffff19166020820180517bffffffffffffffffffffffffffffffffffffffffffffffffffffffff838183161783525050505060405161044e9190610760565b6000604051808303816000865af19150503d806000811461048b576040519150601f19603f3d011682016040523d82523d6000602084013e610490565b606091505b50915091508061049f906107a9565b829350935050509250929050565b60007fffffffff0000000000000000000000000000000000000000000000000000000082169050919050565b6104e2816104ad565b82525050565b60008115159050919050565b6104fd816104e8565b82525050565b600060408201905061051860008301856104d9565b61052560208301846104f4565b9392505050565b600080fd5b600080fd5b600080fd5b600080fd5b600080fd5b60008083601f84011261055b5761055a610536565b5b8235905067ffffffffffffffff8111156105785761057761053b565b5b60208301915083600182028301111561059457610593610540565b5b9250929050565b600080602083850312156105b2576105b161052c565b5b600083013567ffffffffffffffff8111156105d0576105cf610531565b5b6105dc85828601610545565b92509250509250929050565b600073ffffffffffffffffffffffffffffffffffffffff82169050919050565b6000610613826105e8565b9050919050565b61062381610608565b82525050565b600060208201905061063e600083018461061a565b92915050565b61064d81610608565b811461065857600080fd5b50565b60008135905061066a81610644565b92915050565b6000819050919050565b61068381610670565b811461068e57600080fd5b50565b6000813590506106a08161067a565b92915050565b600080604083850312156106bd576106bc61052c565b5b60006106cb8582860161065b565b92505060206106dc85828601610691565b9150509250929050565b600081519050919050565b600081905092915050565b60005b8381101561071a5780820151818401526020810190506106ff565b83811115610729576000848401525b50505050565b600061073a826106e6565b61074481856106f1565b93506107548185602086016106fc565b80840191505092915050565b600061076c828461072f565b915081905092915050565b6000819050602082019050919050565b600061079382516104ad565b80915050919050565b600082821b905092915050565b60006107b4826106e6565b826107be84610777565b90506107c981610787565b92506004821015610809576108047fffffffff000000000000000000000000000000000000000000000000000000008360040360080261079c565b831692505b5050919050565b600082825260208201905092915050565b82818337600083830152505050565b6000601f19601f8301169050919050565b600061084d8385610810565b935061085a838584610821565b61086383610830565b840190509392505050565b60006020820190508181036000830152610889818486610841565b90509392505050565b61089b81610670565b82525050565b60006040820190506108b6600083018561061a565b6108c36020830184610892565b939250505056fea2646970667358221220f0d93161d63a8d0dcb4f35a7e09d8f8efb8afe06507425329616ce2e8ce9456b64736f6c63430008080033",
  "linkReferences": {},
  "deployedLinkReferences": {}
}